{
  "address": "0xbca5ee50b8f2679aa7281fd48817679b82d1c4df",
  "abi": [
    {
      "inputs": [
        {
          "internalType": "contract IZkLink",
          "name": "_zkLinkInstance",
          "type": "address"
        },
        {
          "internalType": "uint48",
          "name": "initialDelay",
          "type": "uint48"
        }
      ],
      "stateMutability": "nonpayable",
      "type": "constructor"
    },
    {
      "anonymous": false,
      "inputs": [
        {
          "indexed": false,
          "internalType": "bool",
          "name": "success",
          "type": "bool"
        },
        {
          "indexed": false,
          "internalType": "bytes",
          "name": "errorInfo",
          "type": "bytes"
        }
      ],
      "name": "AcceptStatus",
      "type": "event"
    },
    {
      "anonymous": false,
      "inputs": [
        {
          "indexed": false,
          "internalType": "bool",
          "name": "success",
          "type": "bool"
        },
        {
          "indexed": false,
          "internalType": "bytes",
          "name": "errorInfo",
          "type": "bytes"
        }
      ],
      "name": "CallStatus",
      "type": "event"
    },
    {
      "anonymous": false,
      "inputs": [],
      "name": "DefaultAdminDelayChangeCanceled",
      "type": "event"
    },
    {
      "anonymous": false,
      "inputs": [
        {
          "indexed": false,
          "internalType": "uint48",
          "name": "newDelay",
          "type": "uint48"
        },
        {
          "indexed": false,
          "internalType": "uint48",
          "name": "effectSchedule",
          "type": "uint48"
        }
      ],
      "name": "DefaultAdminDelayChangeScheduled",
      "type": "event"
    },
    {
      "anonymous": false,
      "inputs": [],
      "name": "DefaultAdminTransferCanceled",
      "type": "event"
    },
    {
      "anonymous": false,
      "inputs": [
        {
          "indexed": true,
          "internalType": "address",
          "name": "newAdmin",
          "type": "address"
        },
        {
          "indexed": false,
          "internalType": "uint48",
          "name": "acceptSchedule",
          "type": "uint48"
        }
      ],
      "name": "DefaultAdminTransferScheduled",
      "type": "event"
    },
    {
      "anonymous": false,
      "inputs": [
        {
          "indexed": true,
          "internalType": "bytes32",
          "name": "role",
          "type": "bytes32"
        },
        {
          "indexed": true,
          "internalType": "bytes32",
          "name": "previousAdminRole",
          "type": "bytes32"
        },
        {
          "indexed": true,
          "internalType": "bytes32",
          "name": "newAdminRole",
          "type": "bytes32"
        }
      ],
      "name": "RoleAdminChanged",
      "type": "event"
    },
    {
      "anonymous": false,
      "inputs": [
        {
          "indexed": true,
          "internalType": "bytes32",
          "name": "role",
          "type": "bytes32"
        },
        {
          "indexed": true,
          "internalType": "address",
          "name": "account",
          "type": "address"
        },
        {
          "indexed": true,
          "internalType": "address",
          "name": "sender",
          "type": "address"
        }
      ],
      "name": "RoleGranted",
      "type": "event"
    },
    {
      "anonymous": false,
      "inputs": [
        {
          "indexed": true,
          "internalType": "bytes32",
          "name": "role",
          "type": "bytes32"
        },
        {
          "indexed": true,
          "internalType": "address",
          "name": "account",
          "type": "address"
        },
        {
          "indexed": true,
          "internalType": "address",
          "name": "sender",
          "type": "address"
        }
      ],
      "name": "RoleRevoked",
      "type": "event"
    },
    {
      "inputs": [],
      "name": "ACCEPT_ERC20",
      "outputs": [
        {
          "internalType": "bytes4",
          "name": "",
          "type": "bytes4"
        }
      ],
      "stateMutability": "view",
      "type": "function"
    },
    {
      "inputs": [],
      "name": "ACCEPT_ETH",
      "outputs": [
        {
          "internalType": "bytes4",
          "name": "",
          "type": "bytes4"
        }
      ],
      "stateMutability": "view",
      "type": "function"
    },
    {
      "inputs": [],
      "name": "BROKER_ROLE",
      "outputs": [
        {
          "internalType": "bytes32",
          "name": "",
          "type": "bytes32"
        }
      ],
      "stateMutability": "view",
      "type": "function"
    },
    {
      "inputs": [],
      "name": "DEFAULT_ADMIN_ROLE",
      "outputs": [
        {
          "internalType": "bytes32",
          "name": "",
          "type": "bytes32"
        }
      ],
      "stateMutability": "view",
      "type": "function"
    },
    {
      "inputs": [],
      "name": "FUND_ROLE",
      "outputs": [
        {
          "internalType": "bytes32",
          "name": "",
          "type": "bytes32"
        }
      ],
      "stateMutability": "view",
      "type": "function"
    },
    {
      "inputs": [],
      "name": "WITNESS_ROLE",
      "outputs": [
        {
          "internalType": "bytes32",
          "name": "",
          "type": "bytes32"
        }
      ],
      "stateMutability": "view",
      "type": "function"
    },
    {
      "inputs": [],
      "name": "acceptDefaultAdminTransfer",
      "outputs": [],
      "stateMutability": "nonpayable",
      "type": "function"
    },
    {
      "inputs": [
        {
          "internalType": "bytes",
          "name": "data",
          "type": "bytes"
        },
        {
          "internalType": "bytes",
          "name": "signature",
          "type": "bytes"
        }
      ],
      "name": "acceptERC20",
      "outputs": [],
      "stateMutability": "nonpayable",
      "type": "function"
    },
    {
      "inputs": [
        {
          "internalType": "bytes",
          "name": "data",
          "type": "bytes"
        },
        {
          "internalType": "uint128",
          "name": "amount",
          "type": "uint128"
        },
        {
          "internalType": "bytes",
          "name": "signature",
          "type": "bytes"
        }
      ],
      "name": "acceptETH",
      "outputs": [],
      "stateMutability": "nonpayable",
      "type": "function"
    },
    {
      "inputs": [
        {
          "internalType": "address",
          "name": "contractAddress",
          "type": "address"
        },
        {
          "internalType": "uint256",
          "name": "amount",
          "type": "uint256"
        }
      ],
      "name": "approveZkLink",
      "outputs": [
        {
          "internalType": "bool",
          "name": "",
          "type": "bool"
        }
      ],
      "stateMutability": "nonpayable",
      "type": "function"
    },
    {
      "inputs": [
        {
          "internalType": "bytes[]",
          "name": "data",
          "type": "bytes[]"
        },
        {
          "internalType": "uint128[]",
          "name": "amounts",
          "type": "uint128[]"
        },
        {
          "internalType": "bytes",
          "name": "signature",
          "type": "bytes"
        }
      ],
      "name": "batchAccept",
      "outputs": [],
      "stateMutability": "nonpayable",
      "type": "function"
    },
    {
      "inputs": [
        {
          "internalType": "bytes[]",
          "name": "data",
          "type": "bytes[]"
        },
        {
          "internalType": "bytes",
          "name": "signature",
          "type": "bytes"
        }
      ],
      "name": "batchAcceptERC20",
      "outputs": [],
      "stateMutability": "nonpayable",
      "type": "function"
    },
    {
      "inputs": [
        {
          "internalType": "bytes[]",
          "name": "data",
          "type": "bytes[]"
        },
        {
          "internalType": "uint128[]",
          "name": "amounts",
          "type": "uint128[]"
        },
        {
          "internalType": "bytes",
          "name": "signature",
          "type": "bytes"
        }
      ],
      "name": "batchAcceptETH",
      "outputs": [],
      "stateMutability": "nonpayable",
      "type": "function"
    },
    {
      "inputs": [
        {
          "internalType": "address",
          "name": "newAdmin",
          "type": "address"
        }
      ],
      "name": "beginDefaultAdminTransfer",
      "outputs": [],
      "stateMutability": "nonpayable",
      "type": "function"
    },
    {
      "inputs": [],
      "name": "cancelDefaultAdminTransfer",
      "outputs": [],
      "stateMutability": "nonpayable",
      "type": "function"
    },
    {
      "inputs": [
        {
          "internalType": "uint48",
          "name": "newDelay",
          "type": "uint48"
        }
      ],
      "name": "changeDefaultAdminDelay",
      "outputs": [],
      "stateMutability": "nonpayable",
      "type": "function"
    },
    {
      "inputs": [
        {
          "internalType": "contract IZkLink",
          "name": "newAddress",
          "type": "address"
        }
      ],
      "name": "changeZkLinkInstance",
      "outputs": [],
      "stateMutability": "nonpayable",
      "type": "function"
    },
    {
      "inputs": [],
      "name": "defaultAdmin",
      "outputs": [
        {
          "internalType": "address",
          "name": "",
          "type": "address"
        }
      ],
      "stateMutability": "view",
      "type": "function"
    },
    {
      "inputs": [],
      "name": "defaultAdminDelay",
      "outputs": [
        {
          "internalType": "uint48",
          "name": "",
          "type": "uint48"
        }
      ],
      "stateMutability": "view",
      "type": "function"
    },
    {
      "inputs": [],
      "name": "defaultAdminDelayIncreaseWait",
      "outputs": [
        {
          "internalType": "uint48",
          "name": "",
          "type": "uint48"
        }
      ],
      "stateMutability": "view",
      "type": "function"
    },
    {
      "inputs": [
        {
          "internalType": "address payable",
          "name": "contractAddress",
          "type": "address"
        },
        {
          "internalType": "bytes",
          "name": "data",
          "type": "bytes"
        }
      ],
      "name": "dynamicCall",
      "outputs": [],
      "stateMutability": "payable",
      "type": "function"
    },
    {
      "inputs": [
        {
          "internalType": "bytes32",
          "name": "role",
          "type": "bytes32"
        }
      ],
      "name": "getRoleAdmin",
      "outputs": [
        {
          "internalType": "bytes32",
          "name": "",
          "type": "bytes32"
        }
      ],
      "stateMutability": "view",
      "type": "function"
    },
    {
      "inputs": [
        {
          "internalType": "address",
          "name": "account",
          "type": "address"
        }
      ],
      "name": "grantBrokerRole",
      "outputs": [],
      "stateMutability": "nonpayable",
      "type": "function"
    },
    {
      "inputs": [
        {
          "internalType": "address",
          "name": "account",
          "type": "address"
        }
      ],
      "name": "grantFundRole",
      "outputs": [],
      "stateMutability": "nonpayable",
      "type": "function"
    },
    {
      "inputs": [
        {
          "internalType": "bytes32",
          "name": "role",
          "type": "bytes32"
        },
        {
          "internalType": "address",
          "name": "account",
          "type": "address"
        }
      ],
      "name": "grantRole",
      "outputs": [],
      "stateMutability": "nonpayable",
      "type": "function"
    },
    {
      "inputs": [
        {
          "internalType": "address",
          "name": "account",
          "type": "address"
        }
      ],
      "name": "grantWitnessRole",
      "outputs": [],
      "stateMutability": "nonpayable",
      "type": "function"
    },
    {
      "inputs": [
        {
          "internalType": "bytes32",
          "name": "role",
          "type": "bytes32"
        },
        {
          "internalType": "address",
          "name": "account",
          "type": "address"
        }
      ],
      "name": "hasRole",
      "outputs": [
        {
          "internalType": "bool",
          "name": "",
          "type": "bool"
        }
      ],
      "stateMutability": "view",
      "type": "function"
    },
    {
      "inputs": [
        {
          "internalType": "bytes[]",
          "name": "data",
          "type": "bytes[]"
        }
      ],
      "name": "multicall",
      "outputs": [
        {
          "internalType": "bytes[]",
          "name": "results",
          "type": "bytes[]"
        }
      ],
      "stateMutability": "nonpayable",
      "type": "function"
    },
    {
      "inputs": [],
      "name": "owner",
      "outputs": [
        {
          "internalType": "address",
          "name": "",
          "type": "address"
        }
      ],
      "stateMutability": "view",
      "type": "function"
    },
    {
      "inputs": [],
      "name": "pendingDefaultAdmin",
      "outputs": [
        {
          "internalType": "address",
          "name": "newAdmin",
          "type": "address"
        },
        {
          "internalType": "uint48",
          "name": "schedule",
          "type": "uint48"
        }
      ],
      "stateMutability": "view",
      "type": "function"
    },
    {
      "inputs": [],
      "name": "pendingDefaultAdminDelay",
      "outputs": [
        {
          "internalType": "uint48",
          "name": "newDelay",
          "type": "uint48"
        },
        {
          "internalType": "uint48",
          "name": "schedule",
          "type": "uint48"
        }
      ],
      "stateMutability": "view",
      "type": "function"
    },
    {
      "inputs": [
        {
          "internalType": "bytes32",
          "name": "role",
          "type": "bytes32"
        },
        {
          "internalType": "address",
          "name": "account",
          "type": "address"
        }
      ],
      "name": "renounceRole",
      "outputs": [],
      "stateMutability": "nonpayable",
      "type": "function"
    },
    {
      "inputs": [
        {
          "internalType": "bytes32",
          "name": "role",
          "type": "bytes32"
        },
        {
          "internalType": "address",
          "name": "account",
          "type": "address"
        }
      ],
      "name": "revokeRole",
      "outputs": [],
      "stateMutability": "nonpayable",
      "type": "function"
    },
    {
      "inputs": [],
      "name": "rollbackDefaultAdminDelay",
      "outputs": [],
      "stateMutability": "nonpayable",
      "type": "function"
    },
    {
      "inputs": [
        {
          "internalType": "bytes4",
          "name": "interfaceId",
          "type": "bytes4"
        }
      ],
      "name": "supportsInterface",
      "outputs": [
        {
          "internalType": "bool",
          "name": "",
          "type": "bool"
        }
      ],
      "stateMutability": "view",
      "type": "function"
    },
    {
      "inputs": [
        {
          "internalType": "contract IERC20",
          "name": "token",
          "type": "address"
        },
        {
          "internalType": "address",
          "name": "to",
          "type": "address"
        },
        {
          "internalType": "uint256",
          "name": "amount",
          "type": "uint256"
        }
      ],
      "name": "withdraw",
      "outputs": [
        {
          "internalType": "bool",
          "name": "",
          "type": "bool"
        }
      ],
      "stateMutability": "nonpayable",
      "type": "function"
    },
    {
      "inputs": [
        {
          "internalType": "address",
          "name": "to",
          "type": "address"
        },
        {
          "internalType": "uint256",
          "name": "amount",
          "type": "uint256"
        }
      ],
      "name": "withdrawETH",
      "outputs": [
        {
          "internalType": "bool",
          "name": "res",
          "type": "bool"
        }
      ],
      "stateMutability": "nonpayable",
      "type": "function"
    },
    {
      "inputs": [],
      "name": "zkLinkInstance",
      "outputs": [
        {
          "internalType": "contract IZkLink",
          "name": "",
          "type": "address"
        }
      ],
      "stateMutability": "view",
      "type": "function"
    },
    {
      "stateMutability": "payable",
      "type": "receive"
    }
  ],
  "transactionHash": "0x42cdf00cd4921b4991be7c2c3a322ab0149122ddde65ee909823997cef131800",
  "args": [
    "0x03da3ef93f80cb0979159be8ff9f44b36e4eeec7",
    100
  ],
  "numDeployments": 1,
  "solcInputHash": "53f7077988879f141b2c87bac1f1ec11",
  "bytecode": "0x608034620001e05762002f3d90601f38839003908101601f19168201906001600160401b03821183831017620001e55780839160409586948552833981010312620001e05780516001600160a01b03808216929091839003620001e05760208091015165ffffffffffff81168103620001e05733156200019c57600180546001600160d01b031660d09290921b6001600160d01b0319169190911790556002549182166200014457336001600160a01b0319928316811760025560008080528083528581209181529082528481205490919060ff1615620000f8575b50506001600355600454161760045551612d419081620001fc8239f35b818052818152848220338084529152848220805460ff191660011790559081907f2f8788117e7eff1d82e926ec794901d17c78024a50270940304540a733656f0d8180a43880620000db565b60849084519062461bcd60e51b82526004820152602c60248201527f416363657373436f6e74726f6c3a2064656661756c742061646d696e20616c7260448201526b1958591e4819dc985b9d195960a21b6064820152fd5b845162461bcd60e51b815260048101839052601e60248201527f416363657373436f6e74726f6c3a20302064656661756c742061646d696e00006044820152606490fd5b600080fd5b634e487b7160e01b600052604160045260246000fdfe608080604052600436101561001d575b50361561001b57600080fd5b005b600090813560e01c90816301ffc9a714611bd757508063022d63fb14611bb9578063029793ec14611b905780630aa6220b14611afa57806320b72daf14611ab7578063248a9ca314611a8b5780632f2ff15d1461198357806336568abe1461180657806338873236146117225780634782f7791461166657806356484f35146116235780635bc71363146115fa578063634e93da1461151f57806363ae938614611471578063649a5ec7146112d757806368db450c146112bc578063751582e3146111ee5780637f32347114610fe357806380c5a32214610fba57806384ef8ffc14610e9957806389bda94914610ec25780638da5cb5b14610e9957806391d1485414610e51578063971941f814610cac5780639b0c753714610c65578063a1eda53c14610c02578063a217fddf14610be6578063ac9650d814610a48578063b5ed6a06146107be578063cc8463c814610793578063cefc142914610539578063cf6eefb7146104fe578063d547741f14610451578063d602b9fd146103ec578063d9caed12146102cc578063e8d39e0d14610221578063f7c2861c146101f35763fedfc5ce0361000f57346101f057806003193601126101f0576020604051600080516020612ccc8339815191528152f35b80fd5b50346101f057806003193601126101f057602061020e611e63565b6040516001600160e01b03199091168152f35b50346101f0576020806003193601126102c85761023c611c46565b600080516020612cec833981519152918284528381526102646001604086200154339061236f565b82845283815260408085206001600160a01b0390931680865292825284205460ff161561028f578380f35b82845283815260408420908285525260408320600160ff198254161790553391600080516020612c6c8339815191528480a43880808380f35b5080fd5b50346101f05760603660031901126101f0576004356001600160a01b03811691908290036101f057806102fd611c61565b610305612bc0565b818052610368602094859284845260408520338652845260ff60408620541680156103c2575b61033490612c16565b60405163a9059cbb60e01b81526001600160a01b039091166004820152604480356024830152909485938492839190820190565b03925af19182156103b65791610389575b5060016003556040519015158152f35b6103a99150823d84116103af575b6103a18183611cd5565b810190612c53565b38610379565b503d610397565b604051903d90823e3d90fd5b50600080516020612cac83398151915285528484526040808620338752855285205460ff1661032b565b50346101f057806003193601126101f05761040633611ee9565b65ffffffffffff610415612531565b90508160d01b600154166001551661042a5780f35b7f8886ebfc4259abdbc16601dd8fb5678e54878f47b3c34836cfc51154a96051098180a180f35b50346101f05760403660031901126101f05760043561046e611c61565b81156104995781610496928452836020526104916001604086200154339061236f565b612484565b80f35b60405162461bcd60e51b815260206004820152603760248201527f416363657373436f6e74726f6c3a2063616e2774206469726563746c79207265604482015276766f6b652064656661756c742061646d696e20726f6c6560481b6064820152608490fd5b50346101f057806003193601126101f057604065ffffffffffff610520612531565b83516001600160a01b0390921682529091166020820152f35b50346101f057806003193601126101f057610552612531565b506001600160a01b03908116330361073d5765ffffffffffff90610574612531565b9092168015159081610733575b50156106dd57600254918183169160018060a01b031980941660025584805260209285845260408620818752845260ff604087205416610696575b506002549181831661063c5716928391161760025582805282815260408320828452815260ff60408420541615610602575b600180546001600160d01b03191690558280f35b82805282815260408320908284525260408220600160ff19825416179055339082600080516020612c6c8339815191528180a438806105ee565b60405162461bcd60e51b815260048101859052602c60248201527f416363657373436f6e74726f6c3a2064656661756c742061646d696e20616c7260448201526b1958591e4819dc985b9d195960a21b6064820152608490fd5b858052858452604080872082885285528620805460ff191690553390867ff6391f5c32d9c69d2a47ea670b442974b53935d1edc7fd64eb21e047a839171b8180a4386105bc565b60405162461bcd60e51b815260206004820152602860248201527f416363657373436f6e74726f6c3a207472616e736665722064656c6179206e6f6044820152671d081c185cdcd95960c21b6064820152608490fd5b9050421138610581565b60405162461bcd60e51b815260206004820152602860248201527f416363657373436f6e74726f6c3a2070656e64696e672061646d696e206d75736044820152671d081858d8d95c1d60c21b6064820152608490fd5b50346101f057806003193601126101f05760206107ae612550565b65ffffffffffff60405191168152f35b50346101f0576107cd36611db6565b936107de96959296939193336120ef565b6107f26107eb82856125df565b3691612670565b6004549093906001600160a01b03168815610a3457600080516020612c8c83398151915290889081906001600160801b0361082c88612bac565b1661083787876125df565b9190826040519384928337810185815203925af16108536126bb565b9061086360405192839283612975565b0390a16108b261087c61087684846125df565b9061290a565b6001600160e01b031961088d611d11565b6001600160e01b031990921691168114908115610a19575b5098949893929193612b5f565b6001925b8184106108ef57876104966108ea6108e28a6108dc8b8f60208151910120923691612670565b90612aa6565b919091612991565b61222f565b90919293976109f39061093b61090687868661262f565b929060405193849181845161092381602097888089019101611e1b565b84019185830137018c83820152038084520182611cd5565b94600080516020612c8c833981519152898060018060a01b03600454168d61097361096e8760018060801b03938d612b9c565b612bac565b1661097f868a8a61262f565b9190826040519384928337810185815203925af161099b6126bb565b906109ab60405192839283612975565b0390a16109ee6109bf61087683878761262f565b6001600160e01b03196109d0611d11565b6001600160e01b0319909216911681149081156109fe575b50612b5f565b6125d0565b9291909793976108b6565b90506001600160e01b0319610a11611e63565b1614386109e8565b90506001600160e01b0319610a2c611e63565b1614386108a5565b634e487b7160e01b88526032600452602488fd5b50346101f0576020806003193601126102c8576001600160401b03600435818111610be25790610a7d84923690600401611d86565b91610a87836125b9565b92610a956040519485611cd5565b808452601f19610aa4826125b9565b01855b818110610bd3575050845b818110610b19575050505060405191838301848452825180915260408401948060408360051b870101940192955b828710610aed5785850386f35b909192938280610b09600193603f198a82030186528851611e3e565b9601920196019592919092610ae0565b610b2a6107eb8284879a999a61262f565b604051906060820182811086821117610bbf57918980610b9c93610bb79695604052602784527f416464726573733a206c6f772d6c6576656c2064656c65676174652063616c6c8c850152660819985a5b195960ca1b60408501528b81519101305af4610b956126bb565b90306126eb565b610ba682886126a7565b52610bb181876126a7565b506125d0565b959495610ab2565b634e487b7160e01b8a52604160045260248afd5b60608682018901528701610aa7565b8380fd5b50346101f057806003193601126101f057602090604051908152f35b50346101f057806003193601126101f0576002548060d01c9182151580610c5b575b15610c52575060a01c65ffffffffffff165b6040805165ffffffffffff928316815292909116602083015290f35b91505080610c36565b5042831015610c24565b50346101f05760203660031901126101f0576004356001600160a01b038116908190036102c857610c9533611ee9565b600480546001600160a01b03191691909117905580f35b50346101f057610cbb36611db6565b93610ccc96959296939193336120ef565b610cd96107eb82856125df565b6004549093906001600160a01b03168815610a345793979390929190600080516020612c8c83398151915290889081906001600160801b03610d1a87612bac565b16610d2586896125df565b9190826040519384928337810185815203925af1610d416126bb565b90610d5160405192839283612975565b0390a1610d86610d6461087683866125df565b6001600160e01b0319610d75611d11565b169063ffffffff60e01b1614612b5f565b6001925b818410610db057876104966108ea6108e28a6108dc8b8f60208151910120923691612670565b9091929397610e4690610dc761090687868661262f565b94600080516020612c8c833981519152898060018060a01b03600454168d610dfa61096e8760018060801b03938d612b9c565b16610e06868a8a61262f565b9190826040519384928337810185815203925af1610e226126bb565b90610e3260405192839283612975565b0390a16109ee610d6461087683878761262f565b929190979397610d8a565b50346101f05760403660031901126101f05760ff6040602092610e72611c61565b60043582528185528282206001600160a01b03909116825284522054604051911615158152f35b50346101f057806003193601126101f0576002546040516001600160a01b039091168152602090f35b50346101f05760403660031901126101f0576001600160401b03816004358281116102c857610ef5903690600401611c77565b9290602435918211610fb657600080516020612c8c83398151915293610f796108ea6108e26108dc610f2c88973690600401611c77565b9190610f37336120ef565b610f5f610f44888a61290a565b6001600160e01b031980610f56611e63565b16911614612936565b610f6a36888a612670565b60208151910120923691612670565b8260018060a01b036004541692826040519384928337810182815203925af1610fa06126bb565b90610fb060405192839283612975565b0390a180f35b8280fd5b50346101f057806003193601126101f0576004546040516001600160a01b039091168152602090f35b50346101f05760403660031901126101f0576001600160401b03600435818111610fb657611015903690600401611d86565b9160249081359081116111ea579161103285933690600401611c77565b92909161103e336120ef565b61104b6107eb87836125df565b9160018060a01b039186808460045416816110668c866125df565b9190826040519384928337810182815203925af1976110836126bb565b98604051806110a3600080516020612c8c8339815191529c8d9483612975565b0390a16110b361087682846125df565b6001600160e01b031992906110cc908480610f56611e63565b6001998a95865b6110f7575b8a6104966108ea6108e28d6108dc8e8e60208151910120923691612670565b60ff8c1697848910156111e35761110f89868661262f565b91908d604051938492818551602096818880890192019161112f92611e1b565b85019186830137019083820152038083520161114b9082611cd5565b97828c80846004541681611160868b8b61262f565b9190826040519384928337810182815203925af161117c6126bb565b60405191829161118c9183612975565b0390a161119a90858561262f565b6111a39161290a565b85806111ad611e63565b169116146111ba90612936565b60ff809c169b8c146111d0579a86019a866110d3565b634e487b7160e01b8b526011600452858bfd5b97506110d8565b8480fd5b50346101f05760403660031901126101f057611208611c46565b90611211612bc0565b80805260209181835260408220338352835260ff6040832054168015611292575b61123b90612c16565b6004805460405163095ea7b360e01b81526001600160a01b0391821692810192909252602480359083015290918491839160449183918791165af19182156103b65791610389575060016003556040519015158152f35b50600080516020612cac83398151915282528183526040808320338452845282205460ff16611232565b50346101f057806003193601126101f057602061020e611d11565b50346101f05760203660031901126101f05760043565ffffffffffff80821690818303610be25761130733611ee9565b611310426128a3565b918161131a612550565b1680821115611428575091611363917ff1038c18cf84a56e432fdbfaf746924b7ea511dfe03a6506a0ceba4888788d9b94936206978080821060001461142157505b1690612589565b906002548060d01c806113c5575b5050600280546001600160a01b031660a083901b65ffffffffffff60a01b161760d084901b6001600160d01b0319161790556040805165ffffffffffff928316815292909116602083015281908101610fb0565b4211156113f757600180546001600160d01b031660309290921b6001600160d01b0319169190911790555b3880611371565b507f2b1fa2edafe6f7b9e97c1a9e0c3660e645beb2dcaa2d45bdbf9beaf5472e1ec58480a16113f0565b905061135c565b0390811161145d577ff1038c18cf84a56e432fdbfaf746924b7ea511dfe03a6506a0ceba4888788d9b92916113639190612589565b634e487b7160e01b84526011600452602484fd5b5060403660031901126101f0576004356001600160a01b038116908190036102c857816024356001600160401b0381116102c8577fe22f3219f1cfbb87d4fd8b39515ae1b8ba2ca0c8d54324f28e0003527b32c23f926114d683923690600401611c77565b906114df612bc0565b6114e833611ee9565b8160405192839283378101848152039134905af16115046126bb565b9061151460405192839283612975565b0390a1600160035580f35b50346101f05760203660031901126101f057611539611c46565b61154233611ee9565b7f3377dc44241e779dd06afab5b788a35ca5f3b778836e2990bdb26a2a4b2e5ed6602061157f611571426128a3565b611579612550565b90612589565b611587612531565b600180546001600160d01b0319166001600160a01b0390971696871760a085901b65ffffffffffff60a01b1617905565ffffffffffff915081166115d1575b60405191168152a280f35b7f8886ebfc4259abdbc16601dd8fb5678e54878f47b3c34836cfc51154a96051098680a16115c6565b50346101f057806003193601126101f0576020604051600080516020612cac8339815191528152f35b50346101f0576020806003193601126102c85761163e611c46565b600080516020612ccc833981519152918284528381526102646001604086200154339061236f565b50346101f05760403660031901126101f057611680611c46565b90611689612bc0565b80805260209181835260408220338352835260ff60408320541680156116f8575b6116b390612c16565b6040518381018181106001600160401b038211176116e4578392838093819360405252602435905af16103796126bb565b634e487b7160e01b84526041600452602484fd5b50600080516020612cac83398151915282528183526040808320338452845282205460ff166116aa565b50346101f05760603660031901126101f0576001600160401b03816004358281116102c857611755903690600401611c77565b6024356001600160801b03811694929190859003610be257604435928311610be257600080516020612c8c833981519152946117e06108ea6108e26108dc6117a289983690600401611c77565b91906117ad336120ef565b6117d56117ba898b61290a565b6001600160e01b0319806117cc611d11565b16911614612b5f565b610f6a36898b612670565b60018060a01b036004541692826040519384928337810185815203925af1610fa06126bb565b50346101f05760403660031901126101f057600435611823611c61565b81158061196c575b6118a6575b336001600160a01b038216036118495761049691612484565b60405162461bcd60e51b815260206004820152602f60248201527f416363657373436f6e74726f6c3a2063616e206f6e6c792072656e6f756e636560448201526e103937b632b9903337b91039b2b63360891b6064820152608490fd5b6118ae612531565b6001600160a01b0390911615908161195a575b81611947575b50156118e4576001805465ffffffffffff60a01b19169055611830565b60405162461bcd60e51b815260206004820152603560248201527f416363657373436f6e74726f6c3a206f6e6c792063616e2072656e6f756e636560448201527420696e2074776f2064656c6179656420737465707360581b6064820152608490fd5b905065ffffffffffff42911610386118c7565b65ffffffffffff8116151591506118c1565b506002546001600160a01b0382811691161461182b565b50346101f05760403660031901126101f0576004356119a0611c61565b8115611a2757818352826020526119bf6001604085200154339061236f565b818352602083815260408085206001600160a01b039093168086529290915283205460ff16156119ed578280f35b818352826020526040832081845260205260408320600160ff198254161790553391600080516020612c6c8339815191528480a438808280f35b60405162461bcd60e51b815260206004820152603660248201527f416363657373436f6e74726f6c3a2063616e2774206469726563746c79206772604482015275616e742064656661756c742061646d696e20726f6c6560501b6064820152608490fd5b50346101f05760203660031901126101f057600160406020926004358152808452200154604051908152f35b50346101f0576020806003193601126102c857611ad2611c46565b600080516020612cac833981519152918284528381526102646001604086200154339061236f565b50346101f057806003193601126101f057611b1433611ee9565b6002548060d01c80611b34575b600280546001600160a01b031690558280f35b421115611b6657600180546001600160d01b031660309290921b6001600160d01b0319169190911790555b3880611b21565b507f2b1fa2edafe6f7b9e97c1a9e0c3660e645beb2dcaa2d45bdbf9beaf5472e1ec58180a1611b5f565b50346101f057806003193601126101f0576020604051600080516020612cec8339815191528152f35b50346101f057806003193601126101f0576020604051620697808152f35b9050346102c85760203660031901126102c85760043563ffffffff60e01b8116809103610fb657602092506318a4c3c360e11b8114908115611c1b575b5015158152f35b637965db0b60e01b811491508115611c35575b5038611c14565b6301ffc9a760e01b14905038611c2e565b600435906001600160a01b0382168203611c5c57565b600080fd5b602435906001600160a01b0382168203611c5c57565b9181601f84011215611c5c578235916001600160401b038311611c5c5760208381860195010111611c5c57565b608081019081106001600160401b03821117611cbf57604052565b634e487b7160e01b600052604160045260246000fd5b90601f801991011681019081106001600160401b03821117611cbf57604052565b6001600160401b038111611cbf57601f01601f191660200190565b604051611d1d81611ca4565b604481527f61636365707445544828616464726573732c75696e7433322c6164647265737360208201527f2c75696e743132382c75696e7431362c75696e7433322c75696e74382c75696e6040820152637433322960e01b606090910152636012ed2d60e01b90565b9181601f84011215611c5c578235916001600160401b038311611c5c576020808501948460051b010111611c5c57565b906060600319830112611c5c576001600160401b03600435818111611c5c5783611de291600401611d86565b93909392602435838111611c5c5782611dfd91600401611d86565b93909392604435918211611c5c57611e1791600401611c77565b9091565b60005b838110611e2e5750506000910152565b8181015183820152602001611e1e565b90602091611e5781518092818552858086019101611e1b565b601f01601f1916010190565b604051611e6f81611ca4565b605581527f616363657074455243323028616464726573732c75696e7433322c616464726560208201527f73732c75696e7431362c75696e743132382c75696e7431362c75696e7433322c60408201527475696e74382c75696e7433322c75696e743132382960581b60609091015263373817fd60e21b90565b6001600160a01b031660008181527fad3228b676f7d3cd4284a5443f17f1962b36e491b30a40b2405849e597ba5fb5602090815260408083205490939192919060ff1615611f375750505050565b611f4090612795565b9080845190611f4e82611ca4565b604282528482019260603685378251156120db57603084538251906001918210156120db5790607860218501536041915b81831161206d5750505061202b57604861202793869361200b93611ffc985198899376020b1b1b2b9b9a1b7b73a3937b61d1030b1b1b7bab73a1604d1b8a860152611fd3815180928c603789019101611e1b565b8401917001034b99036b4b9b9b4b733903937b6329607d1b603784015251809386840190611e1b565b01036028810187520185611cd5565b5192839262461bcd60e51b845260048401526024830190611e3e565b0390fd5b60648486519062461bcd60e51b825280600483015260248201527f537472696e67733a20686578206c656e67746820696e73756666696369656e746044820152fd5b909192600f811660108110156120c7576f181899199a1a9b1b9c1cb0b131b232b360811b901a61209d8587612784565b5360041c9280156120b357600019019190611f7f565b634e487b7160e01b82526011600452602482fd5b634e487b7160e01b83526032600452602483fd5b634e487b7160e01b81526032600452602490fd5b6001600160a01b031660008181527fa3662342a6752b69058346ac4b8305267264ed53d3d3614dcc5ae2ae52587d1d602090815260408083205490939192600080516020612cec83398151915292909160ff161561214e575050505050565b61215790612795565b9184519061216482611ca4565b604282528482019260603685378251156120db57603084538251906001918210156120db5790607860218501536041915b8183116121e95750505061202b57604861202793869361200b93611ffc985198899376020b1b1b2b9b9a1b7b73a3937b61d1030b1b1b7bab73a1604d1b8a860152611fd3815180928c603789019101611e1b565b909192600f811660108110156120c7576f181899199a1a9b1b9c1cb0b131b232b360811b901a6122198587612784565b5360041c9280156120b357600019019190612195565b6001600160a01b031660008181527ff878555ae016124451d960d7c5096c165568b65d19ee1151d93fc4c233d234a2602090815260408083205490939192600080516020612ccc83398151915292909160ff161561228e575050505050565b61229790612795565b918451906122a482611ca4565b604282528482019260603685378251156120db57603084538251906001918210156120db5790607860218501536041915b8183116123295750505061202b57604861202793869361200b93611ffc985198899376020b1b1b2b9b9a1b7b73a3937b61d1030b1b1b7bab73a1604d1b8a860152611fd3815180928c603789019101611e1b565b909192600f811660108110156120c7576f181899199a1a9b1b9c1cb0b131b232b360811b901a6123598587612784565b5360041c9280156120b3576000190191906122d5565b6000908082526020918083526040938482209060018060a01b031690818352845260ff8583205416156123a3575050505050565b6123ac90612795565b918451906123b982611ca4565b604282528482019260603685378251156120db57603084538251906001918210156120db5790607860218501536041915b81831161243e5750505061202b57604861202793869361200b93611ffc985198899376020b1b1b2b9b9a1b7b73a3937b61d1030b1b1b7bab73a1604d1b8a860152611fd3815180928c603789019101611e1b565b909192600f811660108110156120c7576f181899199a1a9b1b9c1cb0b131b232b360811b901a61246e8587612784565b5360041c9280156120b3576000190191906123ea565b9081158061251a575b612505575b60009180835282602052604083209160018060a01b03169182845260205260ff6040842054166124c157505050565b80835282602052604083208284526020526040832060ff1981541690557ff6391f5c32d9c69d2a47ea670b442974b53935d1edc7fd64eb21e047a839171b339380a4565b600280546001600160a01b0319169055612492565b506002546001600160a01b0382811691161461248d565b6001546001600160a01b0381169160a09190911c65ffffffffffff1690565b6002548060d01c801515908161257f575b50156125755760a01c65ffffffffffff1690565b5060015460d01c90565b9050421138612561565b91909165ffffffffffff808094169116019182116125a357565b634e487b7160e01b600052601160045260246000fd5b6001600160401b038111611cbf5760051b60200190565b60001981146125a35760010190565b901561261957803590601e1981360301821215611c5c5701908135916001600160401b038311611c5c576020018236038113611c5c579190565b634e487b7160e01b600052603260045260246000fd5b91908110156126195760051b81013590601e1981360301821215611c5c5701908135916001600160401b038311611c5c576020018236038113611c5c579190565b92919261267c82611cf6565b9161268a6040519384611cd5565b829481845281830111611c5c578281602093846000960137010152565b80518210156126195760209160051b010190565b3d156126e6573d906126cc82611cf6565b916126da6040519384611cd5565b82523d6000602084013e565b606090565b9192901561274d57508151156126ff575090565b3b156127085790565b60405162461bcd60e51b815260206004820152601d60248201527f416464726573733a2063616c6c20746f206e6f6e2d636f6e74726163740000006044820152606490fd5b8251909150156127605750805190602001fd5b60405162461bcd60e51b815260206004820152908190612027906024830190611e3e565b908151811015612619570160200190565b60405190606082018281106001600160401b03821117611cbf57604052602a82526020820160403682378251156126195760309053815160019081101561261957607860218401536029905b8082116128355750506127f15790565b606460405162461bcd60e51b815260206004820152602060248201527f537472696e67733a20686578206c656e67746820696e73756666696369656e746044820152fd5b9091600f8116601081101561288e576f181899199a1a9b1b9c1cb0b131b232b360811b901a6128648486612784565b5360041c9180156128795760001901906127e1565b60246000634e487b7160e01b81526011600452fd5b60246000634e487b7160e01b81526032600452fd5b65ffffffffffff908181116128b6571690565b60405162461bcd60e51b815260206004820152602660248201527f53616665436173743a2076616c756520646f65736e27742066697420696e203460448201526538206269747360d01b6064820152608490fd5b6001600160e01b0319903581811693926004811061292757505050565b60040360031b82901b16169150565b1561293d57565b60405162461bcd60e51b815260206004820152601060248201526f066756e63206572726f722065726332360841b6044820152606490fd5b60409061298e9392151581528160208201520190611e3e565b90565b6005811015612a9057806129a25750565b600181036129ea5760405162461bcd60e51b815260206004820152601860248201527745434453413a20696e76616c6964207369676e617475726560401b6044820152606490fd5b60028103612a375760405162461bcd60e51b815260206004820152601f60248201527f45434453413a20696e76616c6964207369676e6174757265206c656e677468006044820152606490fd5b600314612a4057565b60405162461bcd60e51b815260206004820152602260248201527f45434453413a20696e76616c6964207369676e6174757265202773272076616c604482015261756560f01b6064820152608490fd5b634e487b7160e01b600052602160045260246000fd5b906041815114600014612ad057611e17916020820151906060604084015193015160001a90612ada565b5050600090600290565b9291906fa2a8918ca85bafe22016d0b997e4df60600160ff1b038311612b535791608094939160ff602094604051948552168484015260408301526060820152600093849182805260015afa15612b465781516001600160a01b03811615612b40579190565b50600190565b50604051903d90823e3d90fd5b50505050600090600390565b15612b6657565b60405162461bcd60e51b815260206004820152600e60248201526d0cceadcc640cae4e4dee440cae8d60931b6044820152606490fd5b91908110156126195760051b0190565b356001600160801b0381168103611c5c5790565b600260035414612bd1576002600355565b60405162461bcd60e51b815260206004820152601f60248201527f5265656e7472616e637947756172643a207265656e7472616e742063616c6c006044820152606490fd5b15612c1d57565b60405162461bcd60e51b815260206004820152600e60248201526d6d7573742066756e6420726f6c6560901b6044820152606490fd5b90816020910312611c5c57518015158103611c5c579056fe2f8788117e7eff1d82e926ec794901d17c78024a50270940304540a733656f0d7c978540604a0983942600ccd9f63091df7ea824f96ba5564c8f708246cae855d49944b67e8d70389d5d7c1f0f260f907b9705c55baa96bba23f68e4cedf541801e3814859e1fb52a3619fc87e5bf0e88a404a49d305aef38ab09dc39741b1a7fdae3ca625b7a6a67b1c85ddb9efb8e92252215d4a6ec7177e622584b5b236e8a2646970667358221220ff75b9f96bc98bd0ba0a07f45e260fb5a4964132bd71a6d151a4ae1e881f127264736f6c63430008120033",
  "devdoc": {
    "events": {
      "DefaultAdminDelayChangeCanceled()": {
        "details": "Emitted when a {pendingDefaultAdminDelay} is reset if its schedule didn't pass."
      },
      "DefaultAdminDelayChangeScheduled(uint48,uint48)": {
        "details": "Emitted when a {defaultAdminDelay} change is started, setting `newDelay` as the next delay to be applied between default admin transfer after `effectSchedule` has passed."
      },
      "DefaultAdminTransferCanceled()": {
        "details": "Emitted when a {pendingDefaultAdmin} is reset if it was never accepted, regardless of its schedule."
      },
      "DefaultAdminTransferScheduled(address,uint48)": {
        "details": "Emitted when a {defaultAdmin} transfer is started, setting `newAdmin` as the next address to become the {defaultAdmin} by calling {acceptDefaultAdminTransfer} only after `acceptSchedule` passes."
      },
      "RoleAdminChanged(bytes32,bytes32,bytes32)": {
        "details": "Emitted when `newAdminRole` is set as ``role``'s admin role, replacing `previousAdminRole` `DEFAULT_ADMIN_ROLE` is the starting admin for all roles, despite {RoleAdminChanged} not being emitted signaling this. _Available since v3.1._"
      },
      "RoleGranted(bytes32,address,address)": {
        "details": "Emitted when `account` is granted `role`. `sender` is the account that originated the contract call, an admin role bearer except when using {AccessControl-_setupRole}."
      },
      "RoleRevoked(bytes32,address,address)": {
        "details": "Emitted when `account` is revoked `role`. `sender` is the account that originated the contract call:   - if using `revokeRole`, it is the admin role bearer   - if using `renounceRole`, it is the role bearer (i.e. `account`)"
      }
    },
    "kind": "dev",
    "methods": {
      "acceptDefaultAdminTransfer()": {
        "details": "Completes a {defaultAdmin} transfer previously started with {beginDefaultAdminTransfer}. After calling the function: - `DEFAULT_ADMIN_ROLE` should be granted to the caller. - `DEFAULT_ADMIN_ROLE` should be revoked from the previous holder. - {pendingDefaultAdmin} should be reset to zero values. Requirements: - Only can be called by the {pendingDefaultAdmin}'s `newAdmin`. - The {pendingDefaultAdmin}'s `acceptSchedule` should've passed."
      },
      "beginDefaultAdminTransfer(address)": {
        "details": "Starts a {defaultAdmin} transfer by setting a {pendingDefaultAdmin} scheduled for acceptance after the current timestamp plus a {defaultAdminDelay}. Requirements: - Only can be called by the current {defaultAdmin}. Emits a DefaultAdminRoleChangeStarted event."
      },
      "cancelDefaultAdminTransfer()": {
        "details": "Cancels a {defaultAdmin} transfer previously started with {beginDefaultAdminTransfer}. A {pendingDefaultAdmin} not yet accepted can also be cancelled with this function. Requirements: - Only can be called by the current {defaultAdmin}. May emit a DefaultAdminTransferCanceled event."
      },
      "changeDefaultAdminDelay(uint48)": {
        "details": "Initiates a {defaultAdminDelay} update by setting a {pendingDefaultAdminDelay} scheduled for getting into effect after the current timestamp plus a {defaultAdminDelay}. This function guarantees that any call to {beginDefaultAdminTransfer} done between the timestamp this method is called and the {pendingDefaultAdminDelay} effect schedule will use the current {defaultAdminDelay} set before calling. The {pendingDefaultAdminDelay}'s effect schedule is defined in a way that waiting until the schedule and then calling {beginDefaultAdminTransfer} with the new delay will take at least the same as another {defaultAdmin} complete transfer (including acceptance). The schedule is designed for two scenarios: - When the delay is changed for a larger one the schedule is `block.timestamp + newDelay` capped by {defaultAdminDelayIncreaseWait}. - When the delay is changed for a shorter one, the schedule is `block.timestamp + (current delay - new delay)`. A {pendingDefaultAdminDelay} that never got into effect will be canceled in favor of a new scheduled change. Requirements: - Only can be called by the current {defaultAdmin}. Emits a DefaultAdminDelayChangeScheduled event and may emit a DefaultAdminDelayChangeCanceled event."
      },
      "defaultAdmin()": {
        "details": "Returns the address of the current `DEFAULT_ADMIN_ROLE` holder."
      },
      "defaultAdminDelay()": {
        "details": "Returns the delay required to schedule the acceptance of a {defaultAdmin} transfer started. This delay will be added to the current timestamp when calling {beginDefaultAdminTransfer} to set the acceptance schedule. NOTE: If a delay change has been scheduled, it will take effect as soon as the schedule passes, making this function returns the new delay. See {changeDefaultAdminDelay}."
      },
      "defaultAdminDelayIncreaseWait()": {
        "details": "Maximum time in seconds for an increase to {defaultAdminDelay} (that is scheduled using {changeDefaultAdminDelay}) to take effect. Default to 5 days. When the {defaultAdminDelay} is scheduled to be increased, it goes into effect after the new delay has passed with the purpose of giving enough time for reverting any accidental change (i.e. using milliseconds instead of seconds) that may lock the contract. However, to avoid excessive schedules, the wait is capped by this function and it can be overrode for a custom {defaultAdminDelay} increase scheduling. IMPORTANT: Make sure to add a reasonable amount of time while overriding this value, otherwise, there's a risk of setting a high new delay that goes into effect almost immediately without the possibility of human intervention in the case of an input error (eg. set milliseconds instead of seconds)."
      },
      "getRoleAdmin(bytes32)": {
        "details": "Returns the admin role that controls `role`. See {grantRole} and {revokeRole}. To change a role's admin, use {_setRoleAdmin}."
      },
      "grantRole(bytes32,address)": {
        "details": "See {AccessControl-grantRole}. Reverts for `DEFAULT_ADMIN_ROLE`."
      },
      "hasRole(bytes32,address)": {
        "details": "Returns `true` if `account` has been granted `role`."
      },
      "multicall(bytes[])": {
        "custom:oz-upgrades-unsafe-allow-reachable": "delegatecall",
        "details": "Receives and executes a batch of function calls on this contract."
      },
      "owner()": {
        "details": "See {IERC5313-owner}."
      },
      "pendingDefaultAdmin()": {
        "details": "Returns a tuple of a `newAdmin` and an accept schedule. After the `schedule` passes, the `newAdmin` will be able to accept the {defaultAdmin} role by calling {acceptDefaultAdminTransfer}, completing the role transfer. A zero value only in `acceptSchedule` indicates no pending admin transfer. NOTE: A zero address `newAdmin` means that {defaultAdmin} is being renounced."
      },
      "pendingDefaultAdminDelay()": {
        "details": "Returns a tuple of `newDelay` and an effect schedule. After the `schedule` passes, the `newDelay` will get into effect immediately for every new {defaultAdmin} transfer started with {beginDefaultAdminTransfer}. A zero value only in `effectSchedule` indicates no pending delay change. NOTE: A zero value only for `newDelay` means that the next {defaultAdminDelay} will be zero after the effect schedule."
      },
      "renounceRole(bytes32,address)": {
        "details": "See {AccessControl-renounceRole}. For the `DEFAULT_ADMIN_ROLE`, it only allows renouncing in two steps by first calling {beginDefaultAdminTransfer} to the `address(0)`, so it's required that the {pendingDefaultAdmin} schedule has also passed when calling this function. After its execution, it will not be possible to call `onlyRole(DEFAULT_ADMIN_ROLE)` functions. NOTE: Renouncing `DEFAULT_ADMIN_ROLE` will leave the contract without a {defaultAdmin}, thereby disabling any functionality that is only available for it, and the possibility of reassigning a non-administrated role."
      },
      "revokeRole(bytes32,address)": {
        "details": "See {AccessControl-revokeRole}. Reverts for `DEFAULT_ADMIN_ROLE`."
      },
      "rollbackDefaultAdminDelay()": {
        "details": "Cancels a scheduled {defaultAdminDelay} change. Requirements: - Only can be called by the current {defaultAdmin}. May emit a DefaultAdminDelayChangeCanceled event."
      },
      "supportsInterface(bytes4)": {
        "details": "See {IERC165-supportsInterface}."
      }
    },
    "version": 1
  },
  "userdoc": {
    "kind": "user",
    "methods": {},
    "version": 1
  },
  "storageLayout": {
    "storage": [
      {
        "astId": 24,
        "contract": "contracts/BrokerAccepter.sol:BrokerAccepter",
        "label": "_roles",
        "offset": 0,
        "slot": "0",
        "type": "t_mapping(t_bytes32,t_struct(RoleData)19_storage)"
      },
      {
        "astId": 330,
        "contract": "contracts/BrokerAccepter.sol:BrokerAccepter",
        "label": "_pendingDefaultAdmin",
        "offset": 0,
        "slot": "1",
        "type": "t_address"
      },
      {
        "astId": 332,
        "contract": "contracts/BrokerAccepter.sol:BrokerAccepter",
        "label": "_pendingDefaultAdminSchedule",
        "offset": 20,
        "slot": "1",
        "type": "t_uint48"
      },
      {
        "astId": 334,
        "contract": "contracts/BrokerAccepter.sol:BrokerAccepter",
        "label": "_currentDelay",
        "offset": 26,
        "slot": "1",
        "type": "t_uint48"
      },
      {
        "astId": 336,
        "contract": "contracts/BrokerAccepter.sol:BrokerAccepter",
        "label": "_currentDefaultAdmin",
        "offset": 0,
        "slot": "2",
        "type": "t_address"
      },
      {
        "astId": 338,
        "contract": "contracts/BrokerAccepter.sol:BrokerAccepter",
        "label": "_pendingDelay",
        "offset": 20,
        "slot": "2",
        "type": "t_uint48"
      },
      {
        "astId": 340,
        "contract": "contracts/BrokerAccepter.sol:BrokerAccepter",
        "label": "_pendingDelaySchedule",
        "offset": 26,
        "slot": "2",
        "type": "t_uint48"
      },
      {
        "astId": 1182,
        "contract": "contracts/BrokerAccepter.sol:BrokerAccepter",
        "label": "_status",
        "offset": 0,
        "slot": "3",
        "type": "t_uint256"
      },
      {
        "astId": 5530,
        "contract": "contracts/BrokerAccepter.sol:BrokerAccepter",
        "label": "zkLinkInstance",
        "offset": 0,
        "slot": "4",
        "type": "t_contract(IZkLink)6707"
      }
    ],
    "types": {
      "t_address": {
        "encoding": "inplace",
        "label": "address",
        "numberOfBytes": "20"
      },
      "t_bool": {
        "encoding": "inplace",
        "label": "bool",
        "numberOfBytes": "1"
      },
      "t_bytes32": {
        "encoding": "inplace",
        "label": "bytes32",
        "numberOfBytes": "32"
      },
      "t_contract(IZkLink)6707": {
        "encoding": "inplace",
        "label": "contract IZkLink",
        "numberOfBytes": "20"
      },
      "t_mapping(t_address,t_bool)": {
        "encoding": "mapping",
        "key": "t_address",
        "label": "mapping(address => bool)",
        "numberOfBytes": "32",
        "value": "t_bool"
      },
      "t_mapping(t_bytes32,t_struct(RoleData)19_storage)": {
        "encoding": "mapping",
        "key": "t_bytes32",
        "label": "mapping(bytes32 => struct AccessControl.RoleData)",
        "numberOfBytes": "32",
        "value": "t_struct(RoleData)19_storage"
      },
      "t_struct(RoleData)19_storage": {
        "encoding": "inplace",
        "label": "struct AccessControl.RoleData",
        "members": [
          {
            "astId": 16,
            "contract": "contracts/BrokerAccepter.sol:BrokerAccepter",
            "label": "members",
            "offset": 0,
            "slot": "0",
            "type": "t_mapping(t_address,t_bool)"
          },
          {
            "astId": 18,
            "contract": "contracts/BrokerAccepter.sol:BrokerAccepter",
            "label": "adminRole",
            "offset": 0,
            "slot": "1",
            "type": "t_bytes32"
          }
        ],
        "numberOfBytes": "64"
      },
      "t_uint256": {
        "encoding": "inplace",
        "label": "uint256",
        "numberOfBytes": "32"
      },
      "t_uint48": {
        "encoding": "inplace",
        "label": "uint48",
        "numberOfBytes": "6"
      }
    }
  }
}